{
  "contractName": "BNS",
  "abi": [
    {
      "inputs": [
        {
          "internalType": "string",
          "name": "_username",
          "type": "string"
        }
      ],
      "name": "register",
      "outputs": [],
      "stateMutability": "nonpayable",
      "type": "function"
    },
    {
      "inputs": [
        {
          "internalType": "string",
          "name": "_username",
          "type": "string"
        }
      ],
      "name": "transferETH",
      "outputs": [],
      "stateMutability": "payable",
      "type": "function",
      "payable": true
    },
    {
      "inputs": [],
      "name": "isUserRegistered",
      "outputs": [
        {
          "internalType": "bool",
          "name": "",
          "type": "bool"
        }
      ],
      "stateMutability": "view",
      "type": "function",
      "constant": true
    },
    {
      "inputs": [],
      "name": "getUsername",
      "outputs": [
        {
          "internalType": "string",
          "name": "",
          "type": "string"
        }
      ],
      "stateMutability": "view",
      "type": "function",
      "constant": true
    }
  ],
  "bytecode": "0x608060405234801561001057600080fd5b50610a57806100206000396000f3fe60806040526004361061003f5760003560e01c8063681f3e6d14610044578063873138f31461006f578063a539e0bc1461009a578063f2c298be146100b6575b600080fd5b34801561005057600080fd5b506100596100df565b60405161006691906107ae565b60405180910390f35b34801561007b57600080fd5b506100846101b0565b6040516100919190610793565b60405180910390f35b6100b460048036038101906100af919061063c565b610206565b005b3480156100c257600080fd5b506100dd60048036038101906100d8919061063c565b61036c565b005b60606000803373ffffffffffffffffffffffffffffffffffffffff1673ffffffffffffffffffffffffffffffffffffffff168152602001908152602001600020600101805461012d906108e6565b80601f0160208091040260200160405190810160405280929190818152602001828054610159906108e6565b80156101a65780601f1061017b576101008083540402835291602001916101a6565b820191906000526020600020905b81548152906001019060200180831161018957829003601f168201915b5050505050905090565b60008060003373ffffffffffffffffffffffffffffffffffffffff1673ffffffffffffffffffffffffffffffffffffffff16815260200190815260200160002060000160009054906101000a900460ff16905090565b600073ffffffffffffffffffffffffffffffffffffffff1660018260405161022e9190610767565b908152602001604051809103902060009054906101000a900473ffffffffffffffffffffffffffffffffffffffff1673ffffffffffffffffffffffffffffffffffffffff1614156102b4576040517f08c379a00000000000000000000000000000000000000000000000000000000081526004016102ab906107f0565b60405180910390fd5b60006001826040516102c69190610767565b908152602001604051809103902060009054906101000a900473ffffffffffffffffffffffffffffffffffffffff1673ffffffffffffffffffffffffffffffffffffffff16346040516103189061077e565b60006040518083038185875af1925050503d8060008114610355576040519150601f19603f3d011682016040523d82523d6000602084013e61035a565b606091505b505090508061036857600080fd5b5050565b600073ffffffffffffffffffffffffffffffffffffffff166001826040516103949190610767565b908152602001604051809103902060009054906101000a900473ffffffffffffffffffffffffffffffffffffffff1673ffffffffffffffffffffffffffffffffffffffff1614610419576040517f08c379a0000000000000000000000000000000000000000000000000000000008152600401610410906107d0565b60405180910390fd5b3360018260405161042a9190610767565b908152602001604051809103902060006101000a81548173ffffffffffffffffffffffffffffffffffffffff021916908373ffffffffffffffffffffffffffffffffffffffff16021790555060016000803373ffffffffffffffffffffffffffffffffffffffff1673ffffffffffffffffffffffffffffffffffffffff16815260200190815260200160002060000160006101000a81548160ff021916908315150217905550806000803373ffffffffffffffffffffffffffffffffffffffff1673ffffffffffffffffffffffffffffffffffffffff1681526020019081526020016000206001019080519060200190610525929190610529565b5050565b828054610535906108e6565b90600052602060002090601f016020900481019282610557576000855561059e565b82601f1061057057805160ff191683800117855561059e565b8280016001018555821561059e579182015b8281111561059d578251825591602001919060010190610582565b5b5090506105ab91906105af565b5090565b5b808211156105c85760008160009055506001016105b0565b5090565b60006105df6105da84610835565b610810565b9050828152602081018484840111156105fb576105fa6109ac565b5b6106068482856108a4565b509392505050565b600082601f830112610623576106226109a7565b5b81356106338482602086016105cc565b91505092915050565b600060208284031215610652576106516109b6565b5b600082013567ffffffffffffffff8111156106705761066f6109b1565b5b61067c8482850161060e565b91505092915050565b61068e81610898565b82525050565b600061069f82610866565b6106a9818561087c565b93506106b98185602086016108b3565b6106c2816109bb565b840191505092915050565b60006106d882610866565b6106e2818561088d565b93506106f28185602086016108b3565b80840191505092915050565b600061070b60128361087c565b9150610716826109cc565b602082019050919050565b600061072e600e8361087c565b9150610739826109f5565b602082019050919050565b6000610751600083610871565b915061075c82610a1e565b600082019050919050565b600061077382846106cd565b915081905092915050565b600061078982610744565b9150819050919050565b60006020820190506107a86000830184610685565b92915050565b600060208201905081810360008301526107c88184610694565b905092915050565b600060208201905081810360008301526107e9816106fe565b9050919050565b6000602082019050818103600083015261080981610721565b9050919050565b600061081a61082b565b90506108268282610918565b919050565b6000604051905090565b600067ffffffffffffffff8211156108505761084f610978565b5b610859826109bb565b9050602081019050919050565b600081519050919050565b600081905092915050565b600082825260208201905092915050565b600081905092915050565b60008115159050919050565b82818337600083830152505050565b60005b838110156108d15780820151818401526020810190506108b6565b838111156108e0576000848401525b50505050565b600060028204905060018216806108fe57607f821691505b6020821081141561091257610911610949565b5b50919050565b610921826109bb565b810181811067ffffffffffffffff821117156109405761093f610978565b5b80604052505050565b7f4e487b7100000000000000000000000000000000000000000000000000000000600052602260045260246000fd5b7f4e487b7100000000000000000000000000000000000000000000000000000000600052604160045260246000fd5b600080fd5b600080fd5b600080fd5b600080fd5b6000601f19601f8301169050919050565b7f616c726561647920726567697374657265640000000000000000000000000000600082015250565b7f6e6f742072656769737465726564000000000000000000000000000000000000600082015250565b5056fea2646970667358221220222b9aafdcfa360bcd7c03396e600b2603c7ffa1cb3a1c2b7a8ab5d9b5f9b43e64736f6c63430008070033",
  "immutableReferences": {},
  "source": "// SPDX-License-Identifier: MIT\npragma solidity 0.8.7;\n\ncontract BNS {\n    struct User {\n        bool isRegistered;\n        string username;\n    }\n\n    mapping(address => User) private users;\n    mapping(string => address) private userNaming;\n\n    function register(string memory _username) public {\n        require(\n            userNaming[_username] ==\n                address(0x0000000000000000000000000000000000000000),\n            \"already registered\"\n        );\n\n        userNaming[_username] = msg.sender;\n\n        users[msg.sender].isRegistered = true;\n        users[msg.sender].username = _username;\n    }\n\n    function transferETH(string memory _username) public payable {\n        require(\n            userNaming[_username] !=\n                address(0x0000000000000000000000000000000000000000),\n            \"not registered\"\n        );\n\n        (bool success, ) = userNaming[_username].call{value: msg.value}(\"\");\n        require(success);\n    }\n\n    function isUserRegistered() public view returns (bool) {\n        return users[msg.sender].isRegistered;\n    }\n\n    function getUsername() public view returns (string memory) {\n        return users[msg.sender].username;\n    }\n}\n",
  "sourcePath": "/Users/samuel/Documents/Projet/Pojet_Dev/Blockchain_NS/contracts/BNS.sol",
  "compiler": {
    "name": "solc",
    "version": "0.8.7+commit.e28d00a7.Emscripten.clang"
  },
  "schemaVersion": "3.3.4",
  "updatedAt": "2021-08-28T17:57:13.860Z",
  "networkType": "ethereum",
  "devdoc": {
    "kind": "dev",
    "methods": {},
    "version": 1
  },
  "userdoc": {
    "kind": "user",
    "methods": {},
    "version": 1
  }
}